{
  "_format": "hh-sol-artifact-1",
  "contractName": "HMSRecords",
  "sourceName": "contracts/HMSRecords.sol",
  "abi": [
    {
      "inputs": [],
      "stateMutability": "nonpayable",
      "type": "constructor"
    },
    {
      "anonymous": false,
      "inputs": [
        {
          "indexed": true,
          "internalType": "string",
          "name": "patientId",
          "type": "string"
        },
        {
          "indexed": true,
          "internalType": "address",
          "name": "doctor",
          "type": "address"
        },
        {
          "indexed": true,
          "internalType": "address",
          "name": "authorizedBy",
          "type": "address"
        }
      ],
      "name": "DoctorAuthorized",
      "type": "event"
    },
    {
      "anonymous": false,
      "inputs": [
        {
          "indexed": true,
          "internalType": "string",
          "name": "patientId",
          "type": "string"
        },
        {
          "indexed": true,
          "internalType": "address",
          "name": "doctor",
          "type": "address"
        },
        {
          "indexed": true,
          "internalType": "address",
          "name": "revokedBy",
          "type": "address"
        }
      ],
      "name": "DoctorRevoked",
      "type": "event"
    },
    {
      "anonymous": false,
      "inputs": [
        {
          "indexed": true,
          "internalType": "string",
          "name": "patientId",
          "type": "string"
        },
        {
          "indexed": false,
          "internalType": "bytes32",
          "name": "identityHash",
          "type": "bytes32"
        },
        {
          "indexed": true,
          "internalType": "address",
          "name": "registeredBy",
          "type": "address"
        },
        {
          "indexed": false,
          "internalType": "uint256",
          "name": "timestamp",
          "type": "uint256"
        }
      ],
      "name": "PatientRegistered",
      "type": "event"
    },
    {
      "anonymous": false,
      "inputs": [
        {
          "indexed": false,
          "internalType": "address",
          "name": "account",
          "type": "address"
        }
      ],
      "name": "Paused",
      "type": "event"
    },
    {
      "anonymous": false,
      "inputs": [
        {
          "indexed": true,
          "internalType": "string",
          "name": "patientId",
          "type": "string"
        },
        {
          "indexed": true,
          "internalType": "bytes32",
          "name": "recordHash",
          "type": "bytes32"
        },
        {
          "indexed": true,
          "internalType": "address",
          "name": "authorizedBy",
          "type": "address"
        },
        {
          "indexed": false,
          "internalType": "string",
          "name": "recordType",
          "type": "string"
        },
        {
          "indexed": false,
          "internalType": "uint256",
          "name": "timestamp",
          "type": "uint256"
        }
      ],
      "name": "RecordAdded",
      "type": "event"
    },
    {
      "anonymous": false,
      "inputs": [
        {
          "indexed": true,
          "internalType": "bytes32",
          "name": "recordHash",
          "type": "bytes32"
        },
        {
          "indexed": true,
          "internalType": "address",
          "name": "updatedBy",
          "type": "address"
        },
        {
          "indexed": false,
          "internalType": "uint256",
          "name": "timestamp",
          "type": "uint256"
        }
      ],
      "name": "RecordUpdated",
      "type": "event"
    },
    {
      "anonymous": false,
      "inputs": [
        {
          "indexed": true,
          "internalType": "bytes32",
          "name": "role",
          "type": "bytes32"
        },
        {
          "indexed": true,
          "internalType": "bytes32",
          "name": "previousAdminRole",
          "type": "bytes32"
        },
        {
          "indexed": true,
          "internalType": "bytes32",
          "name": "newAdminRole",
          "type": "bytes32"
        }
      ],
      "name": "RoleAdminChanged",
      "type": "event"
    },
    {
      "anonymous": false,
      "inputs": [
        {
          "indexed": true,
          "internalType": "bytes32",
          "name": "role",
          "type": "bytes32"
        },
        {
          "indexed": true,
          "internalType": "address",
          "name": "account",
          "type": "address"
        },
        {
          "indexed": true,
          "internalType": "address",
          "name": "sender",
          "type": "address"
        }
      ],
      "name": "RoleGranted",
      "type": "event"
    },
    {
      "anonymous": false,
      "inputs": [
        {
          "indexed": true,
          "internalType": "bytes32",
          "name": "role",
          "type": "bytes32"
        },
        {
          "indexed": true,
          "internalType": "address",
          "name": "account",
          "type": "address"
        },
        {
          "indexed": true,
          "internalType": "address",
          "name": "sender",
          "type": "address"
        }
      ],
      "name": "RoleRevoked",
      "type": "event"
    },
    {
      "anonymous": false,
      "inputs": [
        {
          "indexed": false,
          "internalType": "address",
          "name": "account",
          "type": "address"
        }
      ],
      "name": "Unpaused",
      "type": "event"
    },
    {
      "inputs": [],
      "name": "ADMIN_ROLE",
      "outputs": [
        {
          "internalType": "bytes32",
          "name": "",
          "type": "bytes32"
        }
      ],
      "stateMutability": "view",
      "type": "function"
    },
    {
      "inputs": [],
      "name": "DEFAULT_ADMIN_ROLE",
      "outputs": [
        {
          "internalType": "bytes32",
          "name": "",
          "type": "bytes32"
        }
      ],
      "stateMutability": "view",
      "type": "function"
    },
    {
      "inputs": [],
      "name": "DOCTOR_ROLE",
      "outputs": [
        {
          "internalType": "bytes32",
          "name": "",
          "type": "bytes32"
        }
      ],
      "stateMutability": "view",
      "type": "function"
    },
    {
      "inputs": [
        {
          "internalType": "string",
          "name": "patientId",
          "type": "string"
        },
        {
          "internalType": "bytes32",
          "name": "recordHash",
          "type": "bytes32"
        },
        {
          "internalType": "string",
          "name": "recordType",
          "type": "string"
        }
      ],
      "name": "addRecord",
      "outputs": [],
      "stateMutability": "nonpayable",
      "type": "function"
    },
    {
      "inputs": [
        {
          "internalType": "uint256",
          "name": "",
          "type": "uint256"
        }
      ],
      "name": "allPatientIds",
      "outputs": [
        {
          "internalType": "string",
          "name": "",
          "type": "string"
        }
      ],
      "stateMutability": "view",
      "type": "function"
    },
    {
      "inputs": [
        {
          "internalType": "uint256",
          "name": "",
          "type": "uint256"
        }
      ],
      "name": "allRecordHashes",
      "outputs": [
        {
          "internalType": "bytes32",
          "name": "",
          "type": "bytes32"
        }
      ],
      "stateMutability": "view",
      "type": "function"
    },
    {
      "inputs": [
        {
          "internalType": "string",
          "name": "patientId",
          "type": "string"
        },
        {
          "internalType": "address",
          "name": "doctor",
          "type": "address"
        }
      ],
      "name": "authorizeDoctor",
      "outputs": [],
      "stateMutability": "nonpayable",
      "type": "function"
    },
    {
      "inputs": [
        {
          "internalType": "address",
          "name": "",
          "type": "address"
        },
        {
          "internalType": "uint256",
          "name": "",
          "type": "uint256"
        }
      ],
      "name": "doctorPatients",
      "outputs": [
        {
          "internalType": "string",
          "name": "",
          "type": "string"
        }
      ],
      "stateMutability": "view",
      "type": "function"
    },
    {
      "inputs": [
        {
          "internalType": "address",
          "name": "doctor",
          "type": "address"
        }
      ],
      "name": "getDoctorPatients",
      "outputs": [
        {
          "internalType": "string[]",
          "name": "",
          "type": "string[]"
        }
      ],
      "stateMutability": "view",
      "type": "function"
    },
    {
      "inputs": [
        {
          "internalType": "string",
          "name": "patientId",
          "type": "string"
        }
      ],
      "name": "getPatientRecords",
      "outputs": [
        {
          "internalType": "bytes32[]",
          "name": "",
          "type": "bytes32[]"
        }
      ],
      "stateMutability": "view",
      "type": "function"
    },
    {
      "inputs": [
        {
          "internalType": "bytes32",
          "name": "recordHash",
          "type": "bytes32"
        }
      ],
      "name": "getRecord",
      "outputs": [
        {
          "components": [
            {
              "internalType": "string",
              "name": "patientId",
              "type": "string"
            },
            {
              "internalType": "bytes32",
              "name": "recordHash",
              "type": "bytes32"
            },
            {
              "internalType": "uint256",
              "name": "timestamp",
              "type": "uint256"
            },
            {
              "internalType": "address",
              "name": "authorizedBy",
              "type": "address"
            },
            {
              "internalType": "string",
              "name": "recordType",
              "type": "string"
            },
            {
              "internalType": "bool",
              "name": "isActive",
              "type": "bool"
            }
          ],
          "internalType": "struct HMSRecords.MedicalRecord",
          "name": "",
          "type": "tuple"
        }
      ],
      "stateMutability": "view",
      "type": "function"
    },
    {
      "inputs": [
        {
          "internalType": "bytes32",
          "name": "role",
          "type": "bytes32"
        }
      ],
      "name": "getRoleAdmin",
      "outputs": [
        {
          "internalType": "bytes32",
          "name": "",
          "type": "bytes32"
        }
      ],
      "stateMutability": "view",
      "type": "function"
    },
    {
      "inputs": [],
      "name": "getTotalPatients",
      "outputs": [
        {
          "internalType": "uint256",
          "name": "",
          "type": "uint256"
        }
      ],
      "stateMutability": "view",
      "type": "function"
    },
    {
      "inputs": [],
      "name": "getTotalRecords",
      "outputs": [
        {
          "internalType": "uint256",
          "name": "",
          "type": "uint256"
        }
      ],
      "stateMutability": "view",
      "type": "function"
    },
    {
      "inputs": [
        {
          "internalType": "address",
          "name": "doctor",
          "type": "address"
        }
      ],
      "name": "grantDoctorRole",
      "outputs": [],
      "stateMutability": "nonpayable",
      "type": "function"
    },
    {
      "inputs": [
        {
          "internalType": "bytes32",
          "name": "role",
          "type": "bytes32"
        },
        {
          "internalType": "address",
          "name": "account",
          "type": "address"
        }
      ],
      "name": "grantRole",
      "outputs": [],
      "stateMutability": "nonpayable",
      "type": "function"
    },
    {
      "inputs": [
        {
          "internalType": "bytes32",
          "name": "role",
          "type": "bytes32"
        },
        {
          "internalType": "address",
          "name": "account",
          "type": "address"
        }
      ],
      "name": "hasRole",
      "outputs": [
        {
          "internalType": "bool",
          "name": "",
          "type": "bool"
        }
      ],
      "stateMutability": "view",
      "type": "function"
    },
    {
      "inputs": [
        {
          "internalType": "string",
          "name": "patientId",
          "type": "string"
        },
        {
          "internalType": "address",
          "name": "doctor",
          "type": "address"
        }
      ],
      "name": "isAuthorizedDoctor",
      "outputs": [
        {
          "internalType": "bool",
          "name": "",
          "type": "bool"
        }
      ],
      "stateMutability": "view",
      "type": "function"
    },
    {
      "inputs": [
        {
          "internalType": "string",
          "name": "",
          "type": "string"
        },
        {
          "internalType": "uint256",
          "name": "",
          "type": "uint256"
        }
      ],
      "name": "patientRecords",
      "outputs": [
        {
          "internalType": "bytes32",
          "name": "",
          "type": "bytes32"
        }
      ],
      "stateMutability": "view",
      "type": "function"
    },
    {
      "inputs": [
        {
          "internalType": "string",
          "name": "",
          "type": "string"
        }
      ],
      "name": "patients",
      "outputs": [
        {
          "internalType": "string",
          "name": "patientId",
          "type": "string"
        },
        {
          "internalType": "bytes32",
          "name": "identityHash",
          "type": "bytes32"
        },
        {
          "internalType": "uint256",
          "name": "createdAt",
          "type": "uint256"
        },
        {
          "internalType": "bool",
          "name": "isActive",
          "type": "bool"
        }
      ],
      "stateMutability": "view",
      "type": "function"
    },
    {
      "inputs": [],
      "name": "pause",
      "outputs": [],
      "stateMutability": "nonpayable",
      "type": "function"
    },
    {
      "inputs": [],
      "name": "paused",
      "outputs": [
        {
          "internalType": "bool",
          "name": "",
          "type": "bool"
        }
      ],
      "stateMutability": "view",
      "type": "function"
    },
    {
      "inputs": [
        {
          "internalType": "bytes32",
          "name": "",
          "type": "bytes32"
        }
      ],
      "name": "records",
      "outputs": [
        {
          "internalType": "string",
          "name": "patientId",
          "type": "string"
        },
        {
          "internalType": "bytes32",
          "name": "recordHash",
          "type": "bytes32"
        },
        {
          "internalType": "uint256",
          "name": "timestamp",
          "type": "uint256"
        },
        {
          "internalType": "address",
          "name": "authorizedBy",
          "type": "address"
        },
        {
          "internalType": "string",
          "name": "recordType",
          "type": "string"
        },
        {
          "internalType": "bool",
          "name": "isActive",
          "type": "bool"
        }
      ],
      "stateMutability": "view",
      "type": "function"
    },
    {
      "inputs": [
        {
          "internalType": "string",
          "name": "patientId",
          "type": "string"
        },
        {
          "internalType": "bytes32",
          "name": "identityHash",
          "type": "bytes32"
        }
      ],
      "name": "registerPatient",
      "outputs": [],
      "stateMutability": "nonpayable",
      "type": "function"
    },
    {
      "inputs": [
        {
          "internalType": "bytes32",
          "name": "role",
          "type": "bytes32"
        },
        {
          "internalType": "address",
          "name": "account",
          "type": "address"
        }
      ],
      "name": "renounceRole",
      "outputs": [],
      "stateMutability": "nonpayable",
      "type": "function"
    },
    {
      "inputs": [
        {
          "internalType": "string",
          "name": "patientId",
          "type": "string"
        },
        {
          "internalType": "address",
          "name": "doctor",
          "type": "address"
        }
      ],
      "name": "revokeDoctor",
      "outputs": [],
      "stateMutability": "nonpayable",
      "type": "function"
    },
    {
      "inputs": [
        {
          "internalType": "address",
          "name": "doctor",
          "type": "address"
        }
      ],
      "name": "revokeDoctorRole",
      "outputs": [],
      "stateMutability": "nonpayable",
      "type": "function"
    },
    {
      "inputs": [
        {
          "internalType": "bytes32",
          "name": "role",
          "type": "bytes32"
        },
        {
          "internalType": "address",
          "name": "account",
          "type": "address"
        }
      ],
      "name": "revokeRole",
      "outputs": [],
      "stateMutability": "nonpayable",
      "type": "function"
    },
    {
      "inputs": [
        {
          "internalType": "bytes4",
          "name": "interfaceId",
          "type": "bytes4"
        }
      ],
      "name": "supportsInterface",
      "outputs": [
        {
          "internalType": "bool",
          "name": "",
          "type": "bool"
        }
      ],
      "stateMutability": "view",
      "type": "function"
    },
    {
      "inputs": [],
      "name": "unpause",
      "outputs": [],
      "stateMutability": "nonpayable",
      "type": "function"
    },
    {
      "inputs": [
        {
          "internalType": "bytes32",
          "name": "recordHash",
          "type": "bytes32"
        }
      ],
      "name": "updateRecord",
      "outputs": [],
      "stateMutability": "nonpayable",
      "type": "function"
    },
    {
      "inputs": [
        {
          "internalType": "bytes32",
          "name": "recordHash",
          "type": "bytes32"
        }
      ],
      "name": "verifyRecord",
      "outputs": [
        {
          "internalType": "bool",
          "name": "",
          "type": "bool"
        }
      ],
      "stateMutability": "view",
      "type": "function"
    }
  ],
  "bytecode": "0x60806040523480156200001157600080fd5b50600180556002805460ff191690556200002d6000336200005f565b620000597fa49807205ce4d355092ef5a8a18f56e8913cf4a201fbe287825b095693c21775336200005f565b62000100565b6000828152602081815260408083206001600160a01b038516845290915290205460ff16620000fc576000828152602081815260408083206001600160a01b03851684529091529020805460ff19166001179055620000bb3390565b6001600160a01b0316816001600160a01b0316837f2f8788117e7eff1d82e926ec794901d17c78024a50270940304540a733656f0d60405160405180910390a45b5050565b6129be80620001106000396000f3fe608060405234801561001057600080fd5b50600436106101f05760003560e01c806352366c211161010f578063a217fddf116100a2578063d547741f11610071578063d547741f14610479578063e41db2851461048c578063f497e1891461049f578063fec331f2146104a757600080fd5b8063a217fddf1461041b578063b8a751df14610423578063ba50846714610436578063c6009d841461045657600080fd5b80636bd6f34b116100de5780636bd6f34b146103d857806375b238fc146103eb5780638456cb591461040057806391d148541461040857600080fd5b806352366c211461038757806359078f081461039a5780635c975abb146103ad5780635cd40af5146103b857600080fd5b806327531360116101875780633f4ba83a116101565780633f4ba83a146103265780634ac9e3001461032e5780634d408bcf1461034e578063508a91001461037457600080fd5b806327531360146102da5780632f2ff15d146102ed5780632f5635cc1461030057806336568abe1461031357600080fd5b80630aeacb5e116101c35780630aeacb5e1461027c578063213681cd14610284578063248a9ca3146102a457806326af21b0146102c757600080fd5b806301186d99146101f557806301e647251461020a57806301ffc9a714610238578063071849001461025b575b600080fd5b610208610203366004612071565b6104bc565b005b61021d610218366004612071565b6105eb565b60405161022f969594939291906120da565b60405180910390f35b61024b610246366004612132565b610741565b604051901515815260200161022f565b61026e610269366004612071565b610778565b60405190815260200161022f565b60085461026e565b610297610292366004612071565b610799565b60405161022f919061215c565b61026e6102b2366004612071565b60009081526020819052604090206001015490565b6102086102d5366004612293565b610ad7565b61024b6102e8366004612293565b610cac565b6102086102fb3660046122e1565b610d8b565b61020861030e366004612304565b610db5565b6102086103213660046122e1565b610de9565b610208610e63565b61034161033c36600461231f565b610e86565b60405161022f9190612349565b61024b61035c366004612071565b60009081526004602052604090206005015460ff1690565b61020861038236600461235c565b610f3f565b610341610395366004612071565b611230565b6102086103a8366004612293565b61125b565b60025460ff1661024b565b6103cb6103c63660046123c9565b61158d565b60405161022f9190612406565b6102086103e6366004612304565b611671565b61026e60008051602061296983398151915281565b6102086116a1565b61024b6104163660046122e1565b6116c1565b61026e600081565b61026e61043136600461244a565b6116ea565b610449610444366004612304565b61172a565b60405161022f919061248f565b6104696104643660046123c9565b61189c565b60405161022f94939291906124f1565b6102086104873660046122e1565b61195c565b61020861049a36600461244a565b611981565b60075461026e565b61026e60008051602061294983398151915281565b6104c4611b9c565b60008181526004602052604090206005015460ff1661051d5760405162461bcd60e51b815260206004820152601060248201526f149958dbdc99081b9bdd08199bdd5b9960821b60448201526064015b60405180910390fd5b610535600080516020612969833981519152336116c1565b8061055957506000818152600460205260409020600301546001600160a01b031633145b6105b15760405162461bcd60e51b8152602060048201526024808201527f4e6f7420617574686f72697a656420746f20757064617465207468697320726560448201526318dbdc9960e21b6064820152608401610514565b604051428152339082907f35e7b6f8e0ca02c830bfb02ce9e16fda8e9ea880a052abb6e6950140eed84a2d9060200160405180910390a350565b60046020526000908152604090208054819061060690612522565b80601f016020809104026020016040519081016040528092919081815260200182805461063290612522565b801561067f5780601f106106545761010080835404028352916020019161067f565b820191906000526020600020905b81548152906001019060200180831161066257829003601f168201915b505050600184015460028501546003860154600487018054969793969295506001600160a01b039091169350906106b590612522565b80601f01602080910402602001604051908101604052809291908181526020018280546106e190612522565b801561072e5780601f106107035761010080835404028352916020019161072e565b820191906000526020600020905b81548152906001019060200180831161071157829003601f168201915b5050506005909301549192505060ff1686565b60006001600160e01b03198216637965db0b60e01b148061077257506301ffc9a760e01b6001600160e01b03198316145b92915050565b6008818154811061078857600080fd5b600091825260209091200154905081565b6040805160c0810182526060808252600060208301819052928201839052808201839052608082015260a081019190915260008281526004602052604090206005015460ff1661081e5760405162461bcd60e51b815260206004820152601060248201526f149958dbdc99081b9bdd08199bdd5b9960821b6044820152606401610514565b610836600080516020612969833981519152336116c1565b806108de5750600082815260046020526040902080546108de919061085a90612522565b80601f016020809104026020016040519081016040528092919081815260200182805461088690612522565b80156108d35780601f106108a8576101008083540402835291602001916108d3565b820191906000526020600020905b8154815290600101906020018083116108b657829003601f168201915b505050505033610cac565b8061090257506000828152600460205260409020600301546001600160a01b031633145b6109595760405162461bcd60e51b815260206004820152602260248201527f4e6f7420617574686f72697a656420746f20766965772074686973207265636f6044820152611c9960f21b6064820152608401610514565b60008281526004602052604090819020815160c0810190925280548290829061098190612522565b80601f01602080910402602001604051908101604052809291908181526020018280546109ad90612522565b80156109fa5780601f106109cf576101008083540402835291602001916109fa565b820191906000526020600020905b8154815290600101906020018083116109dd57829003601f168201915b5050509183525050600182015460208201526002820154604082015260038201546001600160a01b03166060820152600482018054608090920191610a3e90612522565b80601f0160208091040260200160405190810160405280929190818152602001828054610a6a90612522565b8015610ab75780601f10610a8c57610100808354040283529160200191610ab7565b820191906000526020600020905b815481529060010190602001808311610a9a57829003601f168201915b50505091835250506005919091015460ff16151560209091015292915050565b600080516020612969833981519152610aef81611be4565b610af7611b9c565b600383604051610b07919061255c565b9081526040519081900360200190206004015460ff16610b395760405162461bcd60e51b815260040161051490612578565b6001600160a01b038216610b885760405162461bcd60e51b8152602060048201526016602482015275496e76616c696420646f63746f72206164647265737360501b6044820152606401610514565b610b928383610cac565b15610bdf5760405162461bcd60e51b815260206004820152601960248201527f446f63746f7220616c726561647920617574686f72697a6564000000000000006044820152606401610514565b600383604051610bef919061255c565b9081526040805160209281900383019020600201805460018082018355600092835284832090910180546001600160a01b0319166001600160a01b0388169081179091558252600684529181208054928301815581529190912001610c5484826125f1565b50336001600160a01b0316826001600160a01b031684604051610c77919061255c565b604051908190038120907f53ea77bac257751bb36bf9bc6076f9e71751fc8f1f4ca1fc008b0a060f1343db90600090a4505050565b600080600384604051610cbf919061255c565b9081526040805191829003602090810183206002018054808302850183019093528284529190830182828015610d1e57602002820191906000526020600020905b81546001600160a01b03168152600190910190602001808311610d00575b5050505050905060005b8151811015610d8057836001600160a01b0316828281518110610d4d57610d4d6126b1565b60200260200101516001600160a01b031603610d6e57600192505050610772565b80610d78816126dd565b915050610d28565b506000949350505050565b600082815260208190526040902060010154610da681611be4565b610db08383611bee565b505050565b600080516020612969833981519152610dcd81611be4565b610de560008051602061294983398151915283611bee565b5050565b6001600160a01b0381163314610e595760405162461bcd60e51b815260206004820152602f60248201527f416363657373436f6e74726f6c3a2063616e206f6e6c792072656e6f756e636560448201526e103937b632b9903337b91039b2b63360891b6064820152608401610514565b610de58282611c72565b600080516020612969833981519152610e7b81611be4565b610e83611cd7565b50565b60066020528160005260406000208181548110610ea257600080fd5b90600052602060002001600091509150508054610ebe90612522565b80601f0160208091040260200160405190810160405280929190818152602001828054610eea90612522565b8015610f375780601f10610f0c57610100808354040283529160200191610f37565b820191906000526020600020905b815481529060010190602001808311610f1a57829003601f168201915b505050505081565b610f47611b9c565b600383604051610f57919061255c565b9081526040519081900360200190206004015460ff16610f895760405162461bcd60e51b815260040161051490612578565b81610fd65760405162461bcd60e51b815260206004820152601b60248201527f5265636f726420686173682063616e6e6f7420626520656d70747900000000006044820152606401610514565b610fee600080516020612969833981519152336116c1565b8061100c575061100c600080516020612949833981519152336116c1565b8061101c575061101c8333610cac565b6110685760405162461bcd60e51b815260206004820152601d60248201527f4e6f7420617574686f72697a656420746f20616464207265636f7264730000006044820152606401610514565b60008281526004602052604090206005015460ff16156110c25760405162461bcd60e51b81526020600482015260156024820152745265636f726420616c72656164792065786973747360581b6044820152606401610514565b6040805160c0810182528481526020808201859052428284015233606083015260808201849052600160a083015260008581526004909152919091208151819061110c90826125f1565b50602082015160018201556040820151600282015560608201516003820180546001600160a01b0319166001600160a01b039092169190911790556080820151600482019061115b90826125f1565b5060a091909101516005918201805460ff191691151591909117905560405161118590859061255c565b908152604051908190036020908101822080546001818101835560009283529282200185905560088054928301815590527ff3f7a9fe364faab93b216da50a3214154f22a0a2b415b23a84c8169e8b636ee301839055339083906111ea90869061255c565b60405180910390207f716f9d7e35c51954f900c6c9cf9ed807431a0ca5bff577e9c0d144dd5623babc84426040516112239291906126f6565b60405180910390a4505050565b6007818154811061124057600080fd5b906000526020600020016000915090508054610ebe90612522565b60008051602061296983398151915261127381611be4565b61127b611b9c565b60038360405161128b919061255c565b9081526040519081900360200190206004015460ff166112bd5760405162461bcd60e51b815260040161051490612578565b6112c78383610cac565b61130b5760405162461bcd60e51b8152602060048201526015602482015274111bd8dd1bdc881b9bdd08185d5d1a1bdc9a5e9959605a1b6044820152606401610514565b600060038460405161131d919061255c565b9081526020016040518091039020600201905060005b815481101561143957836001600160a01b0316828281548110611358576113586126b1565b6000918252602090912001546001600160a01b031603611427578154829061138290600190612718565b81548110611392576113926126b1565b9060005260206000200160009054906101000a90046001600160a01b03168282815481106113c2576113c26126b1565b9060005260206000200160006101000a8154816001600160a01b0302191690836001600160a01b03160217905550818054806114005761140061272b565b600082815260209020810160001990810180546001600160a01b0319169055019055611439565b80611431816126dd565b915050611333565b506001600160a01b0383166000908152600660205260408120905b8154811015611533578580519060200120828281548110611477576114776126b1565b9060005260206000200160405161148e9190612741565b60405180910390200361152157815482906114ab90600190612718565b815481106114bb576114bb6126b1565b906000526020600020018282815481106114d7576114d76126b1565b9060005260206000200190816114ed91906127b7565b50818054806114fe576114fe61272b565b60019003818190600052602060002001600061151a9190611fbd565b9055611533565b8061152b816126dd565b915050611454565b50336001600160a01b0316846001600160a01b031686604051611556919061255c565b604051908190038120907f313d03951ff63181e699c784850c99173ea0426ea96118739cd232756cb8dc0890600090a45050505050565b60606115a7600080516020612969833981519152336116c1565b806115b757506115b78233610cac565b6116035760405162461bcd60e51b815260206004820152601e60248201527f4e6f7420617574686f72697a656420746f2076696577207265636f72647300006044820152606401610514565b600582604051611613919061255c565b908152604080519182900360209081018320805480830285018301909352828452919083018282801561166557602002820191906000526020600020905b815481526020019060010190808311611651575b50505050509050919050565b60008051602061296983398151915261168981611be4565b610de560008051602061294983398151915283611c72565b6000805160206129698339815191526116b981611be4565b610e83611d29565b6000918252602082815260408084206001600160a01b0393909316845291905290205460ff1690565b8151602081840181018051600582529282019185019190912091905280548290811061171557600080fd5b90600052602060002001600091509150505481565b6060611744600080516020612969833981519152336116c1565b8061175757506001600160a01b03821633145b6117b25760405162461bcd60e51b815260206004820152602660248201527f4e6f7420617574686f72697a656420746f207669657720646f63746f722070616044820152657469656e747360d01b6064820152608401610514565b6001600160a01b038216600090815260066020908152604080832080548251818502810185019093528083529193909284015b8282101561189157838290600052602060002001805461180490612522565b80601f016020809104026020016040519081016040528092919081815260200182805461183090612522565b801561187d5780601f106118525761010080835404028352916020019161187d565b820191906000526020600020905b81548152906001019060200180831161186057829003601f168201915b5050505050815260200190600101906117e5565b505050509050919050565b80516020818301810180516003825292820191909301209152805481906118c290612522565b80601f01602080910402602001604051908101604052809291908181526020018280546118ee90612522565b801561193b5780601f106119105761010080835404028352916020019161193b565b820191906000526020600020905b81548152906001019060200180831161191e57829003601f168201915b50505050600183015460038401546004909401549293909290915060ff1684565b60008281526020819052604090206001015461197781611be4565b610db08383611c72565b60008051602061296983398151915261199981611be4565b6119a1611b9c565b60008351116119f25760405162461bcd60e51b815260206004820152601a60248201527f50617469656e742049442063616e6e6f7420626520656d7074790000000000006044820152606401610514565b600383604051611a02919061255c565b9081526040519081900360200190206004015460ff1615611a655760405162461bcd60e51b815260206004820152601a60248201527f50617469656e7420616c726561647920726567697374657265640000000000006044820152606401610514565b6040805160a0810182528481526020808201859052825160008152908101835281830152426060820152600160808201529051600390611aa690869061255c565b90815260405190819003602001902081518190611ac390826125f1565b50602082810151600183015560408301518051611ae69260028501920190611ff7565b50606082015160038201556080909101516004909101805460ff1916911515919091179055600780546001810182556000919091527fa66cc928b5edb82af9bd49922954155ab7b0942694bea4ce44661d9a8736c68801611b4784826125f1565b506040513390611b5890859061255c565b60408051918290038220858352426020840152917fca7c439ac98ab508692c283175e70b79c56058dd05da29469976aadc904692f5910160405180910390a3505050565b60025460ff1615611be25760405162461bcd60e51b815260206004820152601060248201526f14185d5cd8589b194e881c185d5cd95960821b6044820152606401610514565b565b610e838133611d66565b611bf882826116c1565b610de5576000828152602081815260408083206001600160a01b03851684529091529020805460ff19166001179055611c2e3390565b6001600160a01b0316816001600160a01b0316837f2f8788117e7eff1d82e926ec794901d17c78024a50270940304540a733656f0d60405160405180910390a45050565b611c7c82826116c1565b15610de5576000828152602081815260408083206001600160a01b0385168085529252808320805460ff1916905551339285917ff6391f5c32d9c69d2a47ea670b442974b53935d1edc7fd64eb21e047a839171b9190a45050565b611cdf611dbf565b6002805460ff191690557f5db9ee0a495bf2e6ff9c91a7834c1ba4fdd244a5e8aa4e537bd38aeae4b073aa335b6040516001600160a01b03909116815260200160405180910390a1565b611d31611b9c565b6002805460ff191660011790557f62e78cea01bee320cd4e420270b5ea74000d11b0c9f74754ebdbfc544b05a258611d0c3390565b611d7082826116c1565b610de557611d7d81611e08565b611d88836020611e1a565b604051602001611d99929190612892565b60408051601f198184030181529082905262461bcd60e51b825261051491600401612349565b60025460ff16611be25760405162461bcd60e51b815260206004820152601460248201527314185d5cd8589b194e881b9bdd081c185d5cd95960621b6044820152606401610514565b60606107726001600160a01b03831660145b60606000611e29836002612907565b611e3490600261291e565b67ffffffffffffffff811115611e4c57611e4c6121d4565b6040519080825280601f01601f191660200182016040528015611e76576020820181803683370190505b509050600360fc1b81600081518110611e9157611e916126b1565b60200101906001600160f81b031916908160001a905350600f60fb1b81600181518110611ec057611ec06126b1565b60200101906001600160f81b031916908160001a9053506000611ee4846002612907565b611eef90600161291e565b90505b6001811115611f67576f181899199a1a9b1b9c1cb0b131b232b360811b85600f1660108110611f2357611f236126b1565b1a60f81b828281518110611f3957611f396126b1565b60200101906001600160f81b031916908160001a90535060049490941c93611f6081612931565b9050611ef2565b508315611fb65760405162461bcd60e51b815260206004820181905260248201527f537472696e67733a20686578206c656e67746820696e73756666696369656e746044820152606401610514565b9392505050565b508054611fc990612522565b6000825580601f10611fd9575050565b601f016020900490600052602060002090810190610e83919061205c565b82805482825590600052602060002090810192821561204c579160200282015b8281111561204c57825182546001600160a01b0319166001600160a01b03909116178255602090920191600190910190612017565b5061205892915061205c565b5090565b5b80821115612058576000815560010161205d565b60006020828403121561208357600080fd5b5035919050565b60005b838110156120a557818101518382015260200161208d565b50506000910152565b600081518084526120c681602086016020860161208a565b601f01601f19169290920160200192915050565b60c0815260006120ed60c08301896120ae565b60208301889052604083018790526001600160a01b0386166060840152828103608084015261211c81866120ae565b91505082151560a0830152979650505050505050565b60006020828403121561214457600080fd5b81356001600160e01b031981168114611fb657600080fd5b602081526000825160c0602084015261217860e08401826120ae565b9050602084015160408401526040840151606084015260018060a01b0360608501511660808401526080840151601f198483030160a08501526121bb82826120ae565b91505060a0840151151560c08401528091505092915050565b634e487b7160e01b600052604160045260246000fd5b600082601f8301126121fb57600080fd5b813567ffffffffffffffff80821115612216576122166121d4565b604051601f8301601f19908116603f0116810190828211818310171561223e5761223e6121d4565b8160405283815286602085880101111561225757600080fd5b836020870160208301376000602085830101528094505050505092915050565b80356001600160a01b038116811461228e57600080fd5b919050565b600080604083850312156122a657600080fd5b823567ffffffffffffffff8111156122bd57600080fd5b6122c9858286016121ea565b9250506122d860208401612277565b90509250929050565b600080604083850312156122f457600080fd5b823591506122d860208401612277565b60006020828403121561231657600080fd5b611fb682612277565b6000806040838503121561233257600080fd5b61233b83612277565b946020939093013593505050565b602081526000611fb660208301846120ae565b60008060006060848603121561237157600080fd5b833567ffffffffffffffff8082111561238957600080fd5b612395878388016121ea565b94506020860135935060408601359150808211156123b257600080fd5b506123bf868287016121ea565b9150509250925092565b6000602082840312156123db57600080fd5b813567ffffffffffffffff8111156123f257600080fd5b6123fe848285016121ea565b949350505050565b6020808252825182820181905260009190848201906040850190845b8181101561243e57835183529284019291840191600101612422565b50909695505050505050565b6000806040838503121561245d57600080fd5b823567ffffffffffffffff81111561247457600080fd5b612480858286016121ea565b95602094909401359450505050565b6000602080830181845280855180835260408601915060408160051b870101925083870160005b828110156124e457603f198886030184526124d28583516120ae565b945092850192908501906001016124b6565b5092979650505050505050565b60808152600061250460808301876120ae565b60208301959095525060408101929092521515606090910152919050565b600181811c9082168061253657607f821691505b60208210810361255657634e487b7160e01b600052602260045260246000fd5b50919050565b6000825161256e81846020870161208a565b9190910192915050565b60208082526011908201527014185d1a595b9d081b9bdd08199bdd5b99607a1b604082015260600190565b601f821115610db057600081815260208120601f850160051c810160208610156125ca5750805b601f850160051c820191505b818110156125e9578281556001016125d6565b505050505050565b815167ffffffffffffffff81111561260b5761260b6121d4565b61261f816126198454612522565b846125a3565b602080601f831160018114612654576000841561263c5750858301515b600019600386901b1c1916600185901b1785556125e9565b600085815260208120601f198616915b8281101561268357888601518255948401946001909101908401612664565b50858210156126a15787850151600019600388901b60f8161c191681555b5050505050600190811b01905550565b634e487b7160e01b600052603260045260246000fd5b634e487b7160e01b600052601160045260246000fd5b6000600182016126ef576126ef6126c7565b5060010190565b60408152600061270960408301856120ae565b90508260208301529392505050565b81810381811115610772576107726126c7565b634e487b7160e01b600052603160045260246000fd5b600080835461274f81612522565b60018281168015612767576001811461277c576127ab565b60ff19841687528215158302870194506127ab565b8760005260208060002060005b858110156127a25781548a820152908401908201612789565b50505082870194505b50929695505050505050565b8181036127c2575050565b6127cc8254612522565b67ffffffffffffffff8111156127e4576127e46121d4565b6127f2816126198454612522565b6000601f821160018114612826576000831561280e5750848201545b600019600385901b1c1916600184901b17845561288b565b600085815260209020601f19841690600086815260209020845b838110156128605782860154825560019586019590910190602001612840565b508583101561287e5781850154600019600388901b60f8161c191681555b50505060018360011b0184555b5050505050565b7f416363657373436f6e74726f6c3a206163636f756e74200000000000000000008152600083516128ca81601785016020880161208a565b7001034b99036b4b9b9b4b733903937b6329607d1b60179184019182015283516128fb81602884016020880161208a565b01602801949350505050565b8082028115828204841417610772576107726126c7565b80820180821115610772576107726126c7565b600081612940576129406126c7565b50600019019056fe0af1dac7dea2fd7f7738119cec7df099dfad49aa9d2e7d17ba6b60f63ae7411fa49807205ce4d355092ef5a8a18f56e8913cf4a201fbe287825b095693c21775a26469706673582212201965b0ffcb7bc84a5551d59bfe2284a3356299169a5f71cbf1c321a5c5b2913564736f6c63430008130033",
  "linkReferences": {},
  "deployedLinkReferences": {}
}